:100000000C9463000C948B000C948B000C948B006C
:100010000C948B000C948B000C948B000C94E803D4
:100020000C948B000C948B000C948B000C948B0024
:100030000C948B000C948B000C948B000C948B0014
:100040000C949E030C948B000C946A040C9444044E
:100050000C948B000C948B000C948B000C948B00F4
:100060000C948B000C948B000000000023002600F1
:1000700029000200000000240027002A00000000E0
:1000800000250028002B00040404040404040402D6
:100090000202020202030303030303010204081025
:1000A00020408001020408102001020408102000F2
:1000B0000000080002010000030407000000000027
:1000C000000000006D0911241FBECFEFD8E0DEBF95
:1000D000CDBF11E0A0E0B1E0ECE9F7E102C005908E
:1000E0000D92AC3CB107D9F722E0ACECB1E001C015
:1000F0001D92AB38B207E1F710E0C3E6D0E004C0D0
:100100002197FE010E94C60BC236D107C9F70E9493
:10011000E1040C94CC0B0C94000090E0FC01E15540
:10012000FF4F2491FC01E556FF4F3491FC01E95744
:10013000FF4FE491EE23C9F0222339F0233001F17F
:10014000A8F4213019F1223029F1F0E0EE0FFF1F61
:10015000E358FF4FA591B4918FB7F894EC916111DA
:1001600026C030953E233C938FBF08952730A9F0D9
:100170002830C9F0243049F7809180008F7D03C07A
:10018000809180008F7780938000DFCF84B58F7758
:1001900084BDDBCF84B58F7DFBCF8091B0008F779E
:1001A0008093B000D2CF8091B0008F7DF9CF3E2BED
:1001B000DACFCF93DF9390E0FC01E556FF4F249117
:1001C00089579F4FFC0184918823D1F090E0880FDC
:1001D000991FFC01ED58FF4FA591B491FC01E35824
:1001E000FF4FC591D49161110EC09FB7F8948C91C7
:1001F000E22FE0958E238C932881E223E8839FBF32
:10020000DF91CF9108958FB7F894EC91E22BEC93A6
:100210008FBFF6CF1F93CF93DF93182FEB0161E0D1
:100220000E94D900209739F460E0812FDF91CF91AF
:100230001F910C948D00CF3FD10511F461E0F5CFF3
:10024000E12FF0E0E155FF4FE491E33031F140F46C
:10025000E130B1F0E230E1F0C038D1057CF7E4CF15
:10026000E73029F1E83059F1E430B1F780918000AE
:10027000806280938000D0938B00C0938A0004C07A
:1002800084B5806884BDC7BDDF91CF911F9108956B
:1002900084B5806284BDC8BDF7CF8091800080683E
:1002A00080938000D0938900C0938800EDCF809127
:1002B000B00080688093B000C093B300E5CF809118
:1002C000B00080628093B000C093B400DDCF8E5048
:1002D000806480937C0080917A00806480937A00AF
:1002E00080917A0086FDFCCF809178009091790012
:1002F00008953FB7F8948091EA019091EB01A091A5
:10030000EC01B091ED0126B5A89B05C02F3F19F077
:100310000196A11DB11D3FBFBA2FA92F982F882785
:10032000BC01CD01620F711D811D911D42E0660F60
:10033000771F881F991F4A95D1F708958F929F9232
:10034000AF92BF92CF92DF92EF92FF920E9479011B
:100350004B015C0180E9C82EDD24D394E12CF12C03
:100360000E947901681979098A099B09683E7340DE
:1003700081059105A8F321E0C21AD108E108F1082E
:1003800088EE880E83E0981EA11CB11CC114D10414
:10039000E104F10429F7FF90EF90DF90CF90BF9038
:1003A000AF909F908F9008959091000189130BC09A
:1003B000E2E7F0E0E4919FEF90930001E13049F033
:1003C00028F0E23061F060E00C948D0010926E0035
:1003D000FACF90916F009D7F90936F00F4CF909132
:1003E00070009D7F9093700091E09093B000909189
:1003F000B100987F94609093B1001092B300E3CF66
:10040000AF92BF92CF92DF92EF92FF920F931F9322
:10041000CF93DF936C017B018B01040F151FEB0160
:100420005E01AE18BF08C017D10759F06991D60117
:10043000ED91FC910190F081E02DC6010995892B89
:1004400079F7C501DF91CF911F910F91FF90EF9048
:10045000DF90CF90BF90AF900895FC01538D448DF5
:10046000252F30E0842F90E0821B930B541710F05F
:10047000CF96089501970895FC01918D828D98176C
:1004800061F0A28DAE0FBF2FB11D5D968C91928D44
:100490009F5F9F73928F90E008958FEF9FEF089575
:1004A000FC01918D828D981731F0828DE80FF11D3E
:1004B000858D90E008958FEF9FEF0895FC01918D59
:1004C000228D892F90E0805C9F4F821B91098F7352
:1004D000992708958EEE91E00E945E0221E0892B1B
:1004E00009F420E0822F089580E090E0892B29F024
:1004F0000E946A0281110C9400000895FC01A48DF1
:10050000A80FB92FB11DA35ABF4F2C91848D90E035
:1005100001968F739927848FA689B7892C93A08918
:10052000B1898C91837080648C93938D848D9813A2
:1005300006C00288F389E02D80818F7D8083089535
:10054000EF92FF920F931F93CF93DF93EC0181E023
:10055000888F9B8D8C8D98131AC0E889F9898081CA
:1005600085FF15C09FB7F894EE89FF896083E889FD
:10057000F98980818370806480839FBF81E090E0EF
:10058000DF91CF911F910F91FF90EF900895F62E7C
:100590000B8D10E00F5F1F4F0F731127E02E8C8D16
:1005A0008E110CC00FB607FCFACFE889F98980815B
:1005B00085FFF5CFCE010E947E02F1CFEB8DEC0FCF
:1005C000FD2FF11DE35AFF4FF0829FB7F8940B8F78
:1005D000EA89FB8980818062CFCFCF93DF93EC01E2
:1005E000888D8823B9F0AA89BB89E889F9898C911B
:1005F00085FD03C0808186FD0DC00FB607FCF7CFD7
:100600008C9185FFF2CF808185FFEDCFCE010E94D6
:100610007E02E9CFDF91CF910895FC010190002087
:10062000E9F73197AF01481B590BBC018EEE91E001
:100630000C9400028F929F92AF92BF920F931F93E0
:10064000CF93DF93CDB7DEB7A1970FB6F894DEBF97
:100650000FBECDBF19A2423008F44AE08E010F5DF3
:100660001F4F842E912CB12CA12CA50194010E9426
:10067000C409E62FB901CA01EA30F4F4E05DD801FB
:10068000EE938D01232B242B252B79F790E080E02E
:10069000109719F0CD010E940D03A1960FB6F894A2
:1006A000DEBF0FBECDBFDF91CF911F910F91BF90E5
:1006B000AF909F908F900895E95CE1CFCF93DF9347
:1006C0000E940D03EC0187E191E00E940D038C0F65
:1006D0009D1FDF91CF910895CF92DF92EF92FF920D
:1006E000CF93DF936C01990FEE08FF08F7FE1FC050
:1006F0006DE28EEE91E00E94A002EC016627772762
:10070000CB016C197D098E099F094AE00E941A03EA
:10071000C80FD91F87E191E00E940D038C0F9D1F28
:10072000DF91CF91FF90EF90DF90CF9008954AE056
:10073000C701B6010E941A03EC01ECCF1F920F9281
:100740000FB60F9211242F933F938F939F93AF93E4
:10075000BF938091E6019091E701A091E801B091EB
:10076000E9013091E50123E0230F2D3758F501967B
:10077000A11DB11D2093E5018093E6019093E7014F
:10078000A093E801B093E9018091EA019091EB0117
:10079000A091EC01B091ED010196A11DB11D8093D6
:1007A000EA019093EB01A093EC01B093ED01BF91AE
:1007B000AF919F918F913F912F910F900FBE0F900E
:1007C0001F90189526E8230F0296A11DB11DD2CFC8
:1007D0001F920F920FB60F9211242F933F934F93B6
:1007E0005F936F937F938F939F93AF93BF93EF9399
:1007F000FF938091D1019091D201A091D301B0914A
:10080000D401892B8A2B8B2BD1F19091CC01E091D3
:10081000CD01F091CE018081892780838091D10123
:100820009091D201A091D301B091D401181619066C
:100830001A061B069CF48091D1019091D201A091DF
:10084000D301B091D4010197A109B1098093D101DD
:100850009093D201A093D301B093D401FF91EF9173
:10086000BF91AF919F918F917F916F915F914F91C8
:100870003F912F910F900FBE0F901F901895809170
:1008800000010E94D401EACF1F920F920FB60F927F
:1008900011242F933F934F935F936F937F938F9385
:1008A0009F93AF93BF93EF93FF938EEE91E00E94DF
:1008B0007E02FF91EF91BF91AF919F918F917F91B8
:1008C0006F915F914F913F912F910F900FBE0F90BD
:1008D0001F9018951F920F920FB60F9211242F930D
:1008E0008F939F93EF93FF93E091FE01F091FF01AF
:1008F0008081E0910402F091050282FD1BC090818D
:10090000809107028F5F8F7320910802821741F058
:10091000E0910702F0E0E251FE4F958F80930702CD
:10092000FF91EF919F918F912F910F900FBE0F909C
:100930001F9018958081F4CFCF92DF92EF92FF92B3
:100940000F931F93E82FF92F05C0015011092109BA
:10095000310961F1908196239417B9F305C00150D4
:1009600011092109310911F1908196239413F7CFD0
:10097000C12CD12CE12CF12C0AC08FEFC81AD80A57
:10098000E80AF80A0C151D052E053F0579F080814F
:100990008623841791F36C2D7D2D8E2D9F2D1F9115
:1009A0000F91FF90EF90DF90CF90089560E070E09E
:1009B00080E090E01F910F91FF90EF90DF90CF903B
:1009C0000895789484B5826084BD84B5816084BDC7
:1009D00085B5826085BD85B5816085BD80916E00DD
:1009E000816080936E00109281008091810082600E
:1009F000809381008091810081608093810080914B
:100A000080008160809380008091B1008460809339
:100A1000B1008091B00081608093B00080917A0035
:100A2000846080937A0080917A00826080937A005B
:100A300080917A00816080937A0080917A0080684A
:100A400080937A001092C10061E083E00E94D90097
:100A500061E082E00E94D90061E084E00E94D90058
:100A600061E085E00E94D90061E086E00E94D90043
:100A700061E087E00E94D90061E08BE00E94D9002C
:100A800061E08CE00E94D90061E088E00E94D9001A
:100A900060E089E00E94D90061E08AE00E94D9000C
:100AA00060E08EE00E94D90060E08FE00E94D900F3
:100AB00060E083E00E948D0061E082E00E948D0092
:100AC00061E084E00E948D0060E085E00E948D007E
:100AD000E091FE01F091FF0182E08083E091FA0154
:100AE000F091FB011082E091FC01F091FD018FEC8F
:100AF000808310920602E0910202F091030286E0E8
:100B00008083E0910002F091010280818061808306
:100B1000E0910002F0910102808188608083E09181
:100B20000002F0910102808180688083E0910002E0
:100B3000F091010280818F7D8083CDEED0E088240A
:100B40008A94982C540141E9242E40E0342E8EE002
:100B50000E9467017C0190930401809303018FE060
:100B60000E94670190930201809301012DEEE2162D
:100B7000F1040CF0F0C28AE191E00E945E038091E2
:100B80000301909104010E946C0360E082E00E94E6
:100B90008D0060E084E00E948D0061E087E00E94AB
:100BA0008D0060E086E00E948D0060E08BE00E9496
:100BB0008D0060E08CE00E948D0080910301909197
:100BC0000401DE01A81BB90BB0930401A09303013B
:100BD00028EC30E00E94BF0B2DEE30E040E050E00A
:100BE0000E949A093093E4012093E3013093E201DB
:100BF0002093E10189E291E00E945E0360E088E0D9
:100C00000E948D0083E090E00197F1F761E088E0B9
:100C10000E948D0083E290E00197F1F760E088E0A8
:100C20000E948D00E4EAF0E06491E0E9F0E0849154
:100C3000E82FF0E0EE0FFF1FE859FF4F85919491E8
:100C400000E412E42FE030E0462F0E949C0461157E
:100C500071058105910529F06F5F7F4F8F4F9F4F81
:100C60009F700E94960A20E030E040E05FE30E941F
:100C70004D0B28E23EE74CE05DE30E944D0B609394
:100C8000DD017093DE018093DF019093E0018FE33B
:100C900091E00E940D03C090DD01D090DE01E09054
:100CA000DF01F090E00120E030E048EC53E4C701C0
:100CB000B6010E94480B87FF0BC020E030E040E007
:100CC00050E4C701B6010E94620A18160CF444C031
:100CD0008CE491E00E945E0320E030E040E252E4C8
:100CE0006091DD017091DE018091DF019091E00162
:100CF0000E94620A18160CF479C189E691E00E94FC
:100D00005E03809100018A3009F0C7C0E2E7F0E09D
:100D1000149117FD64C161E08AE00E94D90011239B
:100D200009F42DC1123009F03EC18091B100887FD5
:100D300085608093B1008FEC8093B3008092D101E5
:100D40009092D201A092D301B092D4018091700010
:100D500082608093700043C1A7019601C701B6016C
:100D60000E94BA0B882339F089E591E00E940D03B7
:100D700085E691E0AFCF26013701E89477F82FEFB1
:100D80003FEF4FE75FE7C301B2010E94BA0B811149
:100D90000DC02FEF3FEF4FE75FE7C301B2010E94A5
:100DA000620A18161CF48DE591E0E0CF2FEF3FEFBB
:100DB0004FE75FE4C701B6010E94480B18161CF408
:100DC00081E691E0D3CF2FEF3FEF4FE75FECC70114
:100DD000B6010E94620A87FDF3CF20E030E0A9014E
:100DE000C701B6010E94620A87FF09C06DE28EEE5C
:100DF00091E00E94A002F7FAF094F7F8F0942AE04C
:100E000037ED43EA5BE3C701B6010E94F6092B0107
:100E10003C010E94670A6B017C010E94960A9B01BB
:100E2000AC01C301B2010E94F5092B013C014AE06B
:100E3000C701B6010E941A036EE28EEE91E00E9495
:100E4000A00220E030E040E251E4C301B2010E9480
:100E50004D0B2B013C010E94670A6B01F12CE12C28
:100E60004AE0C701B6010E941A03C701B6010E94F9
:100E7000960A9B01AC01C301B2010E94F50920E072
:100E800030E040E251E40E944D0B0E94670A90E07E
:100E900080E04AE00E941A036BCF8F3F09F09FC0A9
:100EA0008AE080930001E2E7F0E014911F3F09F42B
:100EB00096C0113021F150F0123009F43EC017FDF8
:100EC0008EC061E08AE00E94D9002CCF14BC15BC12
:100ED00084B5826084BD85B5816085BDF101849152
:100EE000E82FF0E0EE0FFF1FE358FF4F859194913C
:100EF000E5EAF0E0E491E093D00110E00CCF10922D
:100F00008000109281008091810088608093810030
:100F100080918100816080938100F1018491E82FAC
:100F2000F0E0EE0FFF1FE358FF4F85919491E5EA43
:100F3000F0E0E491E093CF01EECE1092B000109279
:100F4000B1008091B00082608093B0008091B100C8
:100F500081608093B100F1018491E82FF0E0EE0F01
:100F6000FF1FE358FF4F859194919093CE0180939A
:100F7000CD01E5EAF0E0E491E093CC01CCCE85B57B
:100F8000887F846085BD87E687BD8092D901909275
:100F9000DA01A092DB01B092DC0180916E008260E8
:100FA00080936E001CC0113009F0CDC0809181008B
:100FB000887F81608093810089E298E69093890020
:100FC000809388008092D5019092D601A092D7019B
:100FD000B092D80180916F00826080936F000E9470
:100FE0009E018AE00E94D4010E949E01809101012D
:100FF000909102018D3E91050CF01FC10E946C037F
:101000008091010190910201DE01A81BB90B24E639
:1010100030E00E94BF0B2DEE30E040E050E00E9437
:101020009A093093020120930101C090E301D0900E
:10103000E401C21AD30AE090E101F090E201E20E6D
:10104000F31E60E087E00E948D0060E086E00E9471
:101050008D0061E08BE00E948D0060E08CE00E94DA
:101060008D00D7FE02C0D12CC12CD092E401C092D9
:10107000E30197012536310514F024E630E0309382
:10108000E2012093E1018DEA91E00E940D0380913D
:101090000101909102018D5E9109883A914020F5FD
:1010A00080910301909104018D5E91098D329140F0
:1010B000D8F48091E1019091E20101972091E30140
:1010C0003091E4012150310937FF02C030E020E0C7
:1010D0003093E4012093E30197FF02C090E080E0A9
:1010E0009093E2018093E1018091E3019091E4010A
:1010F000089724F41092E4011092E3018091E10139
:101100009091E201089724F41092E2011092E1011B
:101110006091E3017091E40183E00E940A01609113
:10112000E1017091E20185E00E940A0180E090E017
:10113000892B09F40CCD0E946A02882309F403CD9F
:101140000E94000000CD123021F0111148CF89E239
:101150001BCF89E2F1CD9AE1E91692E0F906ECF1B4
:1011600061E082E00E948D0061E084E00E948D00D9
:1011700060E087E00E948D0061E086E00E948D00C3
:1011800060E08BE00E948D0060E08CE00E948D00AA
:101190009701FF0C440B550B29513240410951096D
:1011A000A4E6B0E00E94B90926EE31E040E050E04C
:1011B0000E949A093093E4012093E3013093E20105
:1011C0002093E10183E891E00E945E038091030196
:1011D000909104010E946C0309CF8091E1019091EC
:1011E000E20101972091E3013091E401215031099E
:1011F00037FF02C030E020E03093E4012093E301A8
:1012000097FF02C090E080E09093E2018093E101BB
:1012100060E087E00E948D0060E086E00E948D0023
:1012200060E08BE00E948D0060E08CE00E948D0009
:101230008EE991E00E940D03D9CE8539E2E09E0748
:101240000CF425CF0E946C03209101013091020122
:10125000032E000C440B550B24593240410951090F
:10126000AFE5B0E00E94B9092BE631E040E050E084
:101270000E949A0930930201209301018091E101BB
:101280009091E201821B930B6091E3017091E40164
:10129000AB01420F531F4536510514F044E650E0B0
:1012A0005093E4014093E30197FF02C090E080E097
:1012B0009093E2018093E10160E087E00E948D005D
:1012C00060E086E00E948D0060E08BE00E948D006F
:1012D00061E08CE00E948D00DACEEEEEF1E0138248
:1012E000128288EE93E0A0E0B0E084839583A68329
:1012F000B78389E091E09183808385EC90E09587C6
:10130000848784EC90E09787868780EC90E0918BCF
:10131000808B81EC90E0938B828B82EC90E0958BBC
:10132000848B86EC90E0978B868B118E128E138EB9
:10133000148E0895052E97FB1EF400940E94B109A7
:1013400057FD07D00E94C40907FC03D04EF40C944B
:10135000B10950954095309521953F4F4F4F5F4FC4
:10136000089590958095709561957F4F8F4F9F4F11
:1013700008950E94E609A59F900DB49F900DA49F2B
:10138000800D911D11240895A1E21A2EAA1BBB1BEA
:10139000FD010DC0AA1FBB1FEE1FFF1FA217B30741
:1013A000E407F50720F0A21BB30BE40BF50B661F57
:1013B000771F881F991F1A9469F76095709580951B
:1013C00090959B01AC01BD01CF010895A29FB00192
:1013D000B39FC001A39F700D811D1124911DB29F69
:1013E000700D811D1124911D08955058BB27AA2707
:1013F0000E940D0A0C940E0B0E94000B38F00E9404
:10140000070B20F039F49F3F19F426F40C94FD0AE1
:101410000EF4E095E7FB0C94F70AE92F0E941F0BEE
:1014200058F3BA17620773078407950720F079F419
:10143000A6F50C94410B0EF4E0950B2EBA2FA02DBF
:101440000B01B90190010C01CA01A0011124FF2771
:10145000591B99F0593F50F4503E68F11A16F0406C
:10146000A22F232F342F4427585FF3CF469537956B
:101470002795A795F0405395C9F77EF41F16BA0B30
:10148000620B730B840BBAF09150A1F0FF0FBB1FDE
:10149000661F771F881FC2F70EC0BA0F621F731F27
:1014A000841F48F4879577956795B795F7959E3F84
:1014B00008F0B0CF9395880F08F09927EE0F979515
:1014C000879508950E94D30A08F481E008950E9448
:1014D000270B88F09F5798F0B92F9927B751B0F094
:1014E000E1F0660F771F881F991F1AF0BA95C9F7A8
:1014F00014C0B13091F00E94410BB1E008950C94FA
:10150000410B672F782F8827B85F39F0B93FCCF3AC
:10151000869577956795B395D9F73EF49095809524
:10152000709561957F4F8F4F9F4F0895E89409C044
:1015300097FB3EF490958095709561957F4F8F4F06
:101540009F4F9923A9F0F92F96E9BB279395F6951C
:10155000879577956795B795F111F8CFFAF4BB0F9A
:1015600011F460FF1BC06F5F7F4F8F4F9F4F16C0FE
:10157000882311F096E911C0772321F09EE8872F88
:10158000762F05C0662371F096E8862F70E060E044
:101590002AF09A95660F771F881FDAF7880F9695BD
:1015A000879597F90895990F0008550FAA0BE0E861
:1015B000FEEF16161706E807F907C0F01216130615
:1015C000E407F50798F0621B730B840B950B39F455
:1015D0000A2661F0232B242B252B21F408950A26BB
:1015E00009F4A140A6958FEF811D811D089597F9FB
:1015F0009F6780E870E060E008959FEF80EC0895B9
:1016000000240A94161617061806090608950024E1
:101610000A9412161306140605060895092E03945B
:10162000000C11F4882352F0BB0F40F4BF2B11F4CF
:1016300060FF04C06F5F7F4F8F4F9F4F089557FD2E
:101640009058440F551F59F05F3F71F04795880F30
:1016500097FB991F61F09F3F79F0879508951216C7
:1016600013061406551FF2CF4695F1DF08C0161673
:1016700017061806991FF1CF869571056105089424
:101680000895E894BB2766277727CB0197F908953B
:101690000E94D30A08F48FEF08950E94600B0C9407
:1016A0000E0B0E94000B38F00E94070B20F09523D0
:1016B00011F00C94F70A0C94FD0A11240C94420BBF
:1016C0000E941F0B70F3959FC1F3950F50E0551FBB
:1016D000629FF001729FBB27F00DB11D639FAA2787
:1016E000F00DB11DAA1F649F6627B00DA11D661FD6
:1016F000829F2227B00DA11D621F739FB00DA11DF7
:10170000621F839FA00D611D221F749F3327A00DB0
:10171000611D231F849F600D211D822F762F6A2F4C
:1017200011249F5750409AF0F1F088234AF0EE0FB1
:10173000FF1FBB1F661F771F881F91505040A9F7DE
:101740009E3F510580F00C94F70A0C94420B5F3FCA
:10175000E4F3983ED4F3869577956795B795F7951A
:10176000E7959F5FC1F7FE2B880F911D9695879592
:1017700097F908950E94D30A880B990B08950E9447
:10178000E609B7FF0895821B930B0895EE0FFF1F24
:0C1790000590F491E02D0994F894FFCF2F
:10179C00FF5701B50100000000A00200022D02ED70
:1017AC00025E023C0250020D0A00766572742072D1
:1017BC006576657273653A20005961792121212083
:1017CC006920616D20726576657273696E6700447D
:1017DC00697374616E6365203D3A20004F75742007
:1017EC006F662072616E6765006E616E00696E6671
:1017FC00006F76660020636D004265776172652C20
:10180C00206F62737461636C65206168656164212B
:10181C00212100596179212121206920616D206DE0
:10182C006F76696E6720666F72776172640020490B
:10183C002073746F70206D6F76696E6700596179D3
:10184C002121212069276D206D6F76696E672074C8
:0C185C006F20746865206C6566740000E5
:00000001FF
